:020000040800F2
:1000000000800120C10F0008E10D0008E90D000883
:10001000F10D0008F90D0008010E000800000000B5
:10002000000000000000000000000000090E0008B1
:10003000170E000800000000250E0008330E00080F
:10004000111000081110000811100008111000080C
:1000500011100008111000083F0E000811100008D0
:1000600011100008111000081110000811100008EC
:1000700011100008111000081110000811100008DC
:1000800011100008111000081110000800000000F5
:100090000000000000000000000000001110000837
:1000A00011100008111000081110000811100008AC
:1000B000111000081110000811100008111000089C
:1000C000111000081110000811100008111000088C
:1000D00011100008111000081110000800000000A5
:1000E0001110000811100008111000080000000095
:1000F00000000000000000000000000011100008D7
:100100000000000011100008111000081110000874
:1001100000000000000000000000000000000000DF
:10012000111000081110000811100008111000082B
:100130001110000800000000000000000000000096
:100140000000000000000000000000001110000886
:1001500011100008111000081110000811100008FB
:10016000111000081110000800000000000000003D
:10017000000000000000000000000000000000007F
:100180000000000011100008000000000000000046
:040190001110000842
:1001A00010B5054C237833B9044B13B10448AFF3B1
:1001B00000800123237010BD7C000020000000009F
:1001C000503A000808B5034B1BB103490348AFF38D
:1001D000008008BD0000000080000020503A0008A8
:1001E000034613F8012B002AFBD1181A0138704777
:1001F00001F0FF01102A2BDB10F0070F08D010F8D8
:10020000013B013A8B422DD010F0070F42B3F6D1DB
:10021000F0B441EA012141EA014122F007047FF0F4
:1002200000070023F0E80256083C85EA010586EA4B
:10023000010685FA47F5A3FA87F586FA47F6A5FA87
:1002400087F68EB9EED1F0BC01F0FF0102F0070293
:1002500032B110F8013B013A83EA010313B1F8D13E
:100260000020704701387047002D06BF354603381F
:10027000073815F0010F07D1013015F4807F02BF58
:10028000013015F4C03F0130F0BC0138704700BFA9
:1002900053B94AB9002908BF00281CBF4FF0FF31ED
:1002A0004FF0FF3000F088B9ADF1080C6DE904CED5
:1002B00000F006F8DDF804E0DDE9022304B0704741
:1002C0002DE9F047089D8E4604468846002B4AD10A
:1002D0008A42174662D9B2FA82F64EB1C6F12003BD
:1002E00001FA06F820FA03F3B74043EA0808B440DD
:1002F0004FEA174E1FFA87FCB8FBFEF1230C0EFBEA
:10030000118843EA084301FB0CF29A4209D9FB1811
:1003100001F1FF3080F0EA809A4240F2E780023932
:100320003B449A1AA3B2B2FBFEF00EFB102243EA42
:10033000024300FB0CFC9C4509D9FB1800F1FF327D
:1003400080F0D6809C4540F2D3803B44023840EA9E
:100350000140A3EB0C0300211DB1F3400022C5E9CD
:100360000032BDE8F0878B4205D90DB1C5E9000127
:1003700000210846F5E7B3FA83F1002946D1734519
:1003800002D3824200F20581841A6EEB030201203F
:100390009046002DE5D0C5E90048E2E7002A00F0CC
:1003A0009080B2FA82F6002E40F0A4808A1A030CE4
:1003B0004FEA174E80B2BCB20121B2FBFEFC0EFB2D
:1003C0001C2243EA024304FB0CF29A4207D9FB18B1
:1003D0000CF1FF3802D29A4200F2E080C4469B1A28
:1003E000B3FBFEF20EFB123340EA034302FB04F4BC
:1003F0009C4207D9FB1802F1FF3002D29C4200F266
:10040000CA8002461B1B42EA0C40A5E7C1F1200648
:100410008B4022FA06F71F430EFA01F420FA06F386
:100420002EFA06FE4FEA1749234300FA01F81FFA95
:1004300087FCBEFBF9F01C0C09FB10EE44EA0E44ED
:1004400000FB0CFEA64502FA01F209D93C1900F1A5
:10045000FF3A80F09C80A64540F2998002383C44E7
:10046000A4EB0E041FFA83FEB4FBF9F309FB13445B
:100470004EEA044403FB0CFCA44508D93C1903F1E3
:10048000FF3E80F08280A4457FD9023B3C4443EA92
:100490000040A4EB0C04A0FB02EC64457346E1466B
:1004A00062D35FD05DB1B8EB030264EB090404FAD8
:1004B00006F622FA01F31E43CC40C5E90064002190
:1004C0004FE7B1FBF2FC010C41EA0E4180B240EA79
:1004D00001423B4638463C46B846BE462026B1FB64
:1004E000F7F1A2EB080241EA0C4166E7014618E782
:1004F00010462CE7C6F120022EFA02F3B740B140B5
:1005000020FA02F24FEA174E0A43B3FBFEF8BCB2E0
:100510000EFB1833110C41EA034108FB04F9B0400B
:1005200089454FEA104380B23ED9791808F1FF3C63
:1005300001D289451FD8A1EB0901B1FBFEF909FBE6
:1005400004F80EFB191192B242EA0142424529D247
:10055000BA1809F1FF31C4D24245C2D2A9F1020151
:100560003A44BEE7F0459DD2BEEB02036CEB070CAC
:100570000138E14696E7A7EB09094944A8F1020CC6
:10058000B1FBFEF909FB04F8DBE773467FE7504651
:1005900066E70846FDE63B44023A33E7ACF1020C5D
:1005A0003B441CE749469CE7A1EB0901C446B1FB6B
:1005B000FEF909FB04F8C4E7704700BF80B582B0BC
:1005C00000AF786039603B6801227968064802F024
:1005D000D8F90346002B0CBF01230023DBB21846D9
:1005E0000837BD4680BD00BF9C00002080B582B0AA
:1005F00000AF0346FB71F91D4FF0FF3301220348A2
:1006000002F034F900BF0837BD4680BD9C000020D1
:1006100080B588B000AF07F1080300221A605A6065
:100620009A60DA601A6101233B6107237B61022330
:10063000BB6100237B6000F01DFF3A1D07F108033A
:100640001146184601F088F80346FB7700F034FFA6
:10065000FB7F002B01D1002300E003231846203745
:10066000BD4680BD80B582B000AF78603960396822
:1006700000200A4603467968022000F0A9FE0346DE
:10068000002B01D0032300E0002318460837BD46A5
:1006900080BD80B485B000AF78600B467B800023BE
:1006A000FB730023BB8109E0BB897A6813441A7885
:1006B000FB7B1344FB73BB890133BB81BA897B8805
:1006C0009A42F1D3FB7B18461437BD465DF8047B94
:1006D0007047000080B5AAB000AF012387F8A730AB
:1006E0009F4BC7F8A0300023C7F89C30002387F841
:1006F0009B30FFF78DFF034687F89B3097F89B30C0
:10070000002B02D097F89B3025E100F0B3FE40F6B5
:10071000B83000F027FD1520FFF768FF07F10B0345
:1007200040F6B8311846FFF749FF034683F001034E
:10073000DBB2002B16D0D7F89C300133C7F89C30C1
:10074000D7F89C30022B09DD1820FFF74FFF182047
:10075000FFF74CFF012387F89B30F6E01520FFF7E9
:1007600045FFF7E0FB7A042B06D10620FFF73EFF9A
:10077000002387F89B30E8E0FB7A182B03D1042391
:1007800087F89B30E1E0FB7A012B03D01520FFF7BF
:100790002DFFDFE007F10A0340F6B8311846FFF7F6
:1007A0000DFF034683F00103DBB2002B0CD107F1F0
:1007B000090340F6B8311846FFF700FF034683F0FF
:1007C0000103DBB2002B03D01520FFF70FFFC1E0C0
:1007D000BB7A1A467B7A1344FF2B03D01520FFF710
:1007E00005FFB7E00023C7F8943017E007F10C02CB
:1007F000D7F89430134440F6B8311846FFF7DEFEC0
:10080000034683F00103DBB2002B02D0FF23BB724F
:1008100008E0D7F894300133C7F89430D7F8943013
:100820007F2BE3DD07F1080340F6B8311846FFF7E8
:10083000C5FE034683F00103DBB2002B0DD107F1A7
:100840000C0380211846FFF724FF03461A463B7A23
:100850009A4202D1BB7AFF2B03D11520FFF7C6FEC7
:1008600078E097F8A730013BDAB2BB7A9A4203D11D
:100870000620FFF7BBFE6DE0BB7A97F8A7209A42EF
:1008800009D01820FFF7B2FE1820FFF7AFFE0223B1
:1008900087F89B3059E0D7F8A0308033314A934233
:1008A00009D91820FFF7A2FE1820FFF79FFE0523A5
:1008B00087F89B3049E0012387F893300023C7F87D
:1008C0008C301CE007F10C02D7F88C3013441B6805
:1008D0007B60D7F88C20D7F8A03013447A68114693
:1008E0001846FFF7BFFE0346002B03D0002387F80E
:1008F000933008E0D7F88C300433C7F88C30D7F841
:100900008C307F2BDEDD97F8933083F00103DBB270
:10091000002B09D01820FFF769FE1820FFF766FEAC
:10092000032387F89B3010E0D7F8A0308033C7F856
:10093000A03097F8A730013387F8A7300023C7F815
:100940009C300620FFF752FEE8E600F0B5FD97F870
:100950009B3000E0E2E61846A837BD4680BD00BFE8
:10096000004000080000080880B483B000AF144BBA
:100970001B687B60134B1B683B607B68B3F1005FB7
:1009800003D37B68104A934201D9002311E03B68EE
:100990000B4A934203D33B680C4A934201D900238C
:1009A00007E03B6803F00103002B01D1002300E0C6
:1009B000012318460C37BD465DF8047B704700BF25
:1009C000004000080440000800800120FFFF0708E5
:1009D00080B584B000AF1E4B1E4A9A601E4B0022A9
:1009E0001A601D4B00225A601B4B00229A6072B69F
:1009F00000BF0023FB6010E0184AFB6820334FF073
:100A0000FF3142F82310154AFB6860334FF0FF3185
:100A100042F82310FB680133FB60FB68072BEBDD1A
:100A200001F006FE00F018FB094B0A4A9A60094BD8
:100A30001B687B607B6883F3088800BF084B1B68DA
:100A4000BB60BB68984700BF1037BD4680BD00BF84
:100A500000ED00E00040000810E000E000E100E0F0
:100A60000440000880B58AB000AF07F114030022EB
:100A70001A605A609A60DA601A6100233B61324B57
:100A80001B6B314A43F0040313632F4B1B6B03F0C2
:100A900004033B613B690023FB602B4B1B6B2A4A21
:100AA00043F080031363284B1B6B03F08003FB6050
:100AB000FB680023BB60244B1B6B234A43F00103FC
:100AC0001363214B1B6B03F00103BB60BB68002366
:100AD0007B601D4B1B6B1C4A43F0020313631A4BD4
:100AE0001B6B03F002037B607B6800224FF4005114
:100AF000164801F0EDF84FF400537B610123BB6110
:100B00000023FB6100233B6207F1140319460F48E1
:100B100000F042FF01237B614FF48813BB61012386
:100B2000FB6107F114031946094800F035FF002264
:100B30000021062000F015FC062000F02EFC00BF6E
:100B40002837BD4680BD00BF003802400008024083
:100B50000000024080B500AF0121054801F0A0F877
:100B60000346002B0CBF01230023DBB2184680BDD7
:100B700000000240B0B598B000AF00F04BFA00F0B2
:100B800097F8FFF76FFF00F0A9F9FFF7E3FF0346BF
:100B900083F00103DBB2002B1BD0FFF7E5FE034619
:100BA000002B16D0394B3C1D1D460FCD0FC495E8C8
:100BB0000F0007C423703B1D1846FFF711FB0346C7
:100BC0009AB2391D4FF47A73314801F04FFEFFF7A6
:100BD000FFFEFFF77FFD034687F85F3097F85F2041
:100BE00007F124032B49184602F092FA07F1240377
:100BF0001846FFF7F5FA03469AB207F124014FF4BD
:100C00007A73234801F032FE234B1B68BB65234BEC
:100C10001B687B6507F124007B6DBA6D204902F0EB
:100C200077FA07F124031846FFF7DAFA03469AB277
:100C300007F124014FF47A73154801F017FE97F875
:100C40005F30002B10D1FFF78FFE0346002B0BD037
:100C50004FF47A730C2213490D4801F007FE64200B
:100C600000F080FAFFF7B4FE4FF47A730E220E49BB
:100C7000074801F0FBFD4FF400510C4801F041F82A
:100C80004FF47A7000F06EFA00BFF4E7B83A00084B
:100C90009C000020683A000800400008044000085A
:100CA0007C3A0008983A0008A83A00080008024078
:100CB00080B594B000AF07F1200330220021184620
:100CC00002F048FA07F10C0300221A605A609A6099
:100CD000DA601A610023BB60284B1B6C274A43F083
:100CE00080531364254B1B6C03F08053BB60BB68BF
:100CF00000237B60224B1B6823F44043204A43F4CB
:100D0000004313601E4B1B6803F440437B607B6809
:100D100001233B624FF480337B620223BB634FF4B9
:100D20008003FB6319233B64A8237B640223BB6419
:100D30000423FB6407F12003184601F021F8034661
:100D4000002B01D000F01EF80F23FB6002233B6153
:100D500000237B614FF48053BB610023FB6107F1EB
:100D60000C030221184601F083FA0346002B01D040
:100D700000F008F800BF5037BD4680BD0038024083
:100D80000070004080B400AF72B600BF00BFFDE746
:100D900080B483B000AF00237B60104B5B6C0F4AC4
:100DA00043F4804353640D4B5B6C03F480437B60DE
:100DB0007B6800233B60094B1B6C084A43F080535F
:100DC0001364064B1B6C03F080533B603B6800BF11
:100DD0000C37BD465DF8047B704700BF0038024009
:100DE00080B400AF00BFFDE780B400AF00BFFDE7F7
:100DF00080B400AF00BFFDE780B400AF00BFFDE7E7
:100E000080B400AF00BFFDE780B400AF00BFBD46B7
:100E10005DF8047B704780B400AF00BFBD465DF84D
:100E2000047B704780B400AF00BFBD465DF8047B13
:100E3000704780B500AF00F075F900BF80BD80B588
:100E400000AF012000F078FF00BF80BD80B586B004
:100E500000AF7860144A154BD31A7B617B693B6104
:100E6000134B1B68002B02D1114B124A1A60104B16
:100E70001A687B6813443A699A4207D202F072F901
:100E800003460C221A604FF0FF3309E0084B1B6841
:100E9000FB60074B1A687B681344054A1360FB68C4
:100EA00018461837BD4680BD0080012000040000B0
:100EB000980000203002002080B400AF064BD3F829
:100EC0008830054A43F47003C2F8883000BFBD463D
:100ED0005DF8047B704700BF00ED00E080B500AF17
:100EE000114B124A1A60104B4FF4E1325A600E4B0C
:100EF00000229A600C4B0022DA600B4B00221A6130
:100F0000094B0C225A61084B00229A61064B0022C1
:100F1000DA61054801F05AFC0346002B01D0FFF7C7
:100F200031FF00BF80BD00BF9C00002000100140C9
:100F300080B58AB000AF786007F1140300221A6010
:100F40005A609A60DA601A617B681B68194A93429A
:100F50002CD100233B61184B5B6C174A43F0100304
:100F60005364154B5B6C03F010033B613B6900233A
:100F7000FB60114B1B6B104A43F0010313630E4BD4
:100F80001B6B03F00103FB60FB684FF4C0637B61E4
:100F90000223BB610023FB6103233B6207237B62C7
:100FA00007F114031946054800F0F6FC00BF283786
:100FB000BD4680BD001001400038024000000240E4
:100FC000DFF834D0FFF778FF0C480D490D4A0023B5
:100FD00002E0D458C4500433C4188C42F9D30A4AEE
:100FE0000A4C002301E013600432A242FBD302F05A
:100FF000BFF8FFF7BFFD7047008001200000002010
:101000007C000020343B00087C00002030020020DF
:10101000FEE7000080B500AF0E4B1B680D4A43F49D
:10102000007313600B4B1B680A4A43F48063136020
:10103000084B1B68074A43F480731360032000F0D9
:1010400085F90F2000F03EF8FFF7A2FE00231846B6
:1010500080BD00BF003C024080B500AF114B124A7A
:101060001A62104B00221A620E4B104A5A620D4B44
:1010700000225A620B4B0E4A1A610A4B00221A6177
:10108000084B80225A61074B00225A61054B4FF0F2
:10109000FF329A61034B00229A6100F00BF80023A3
:1010A000184680BD003802400FC8E21031790700B1
:1010B0009F10600080B400AF00BFBD465DF8047BA8
:1010C0007047000080B582B000AF7860124B1A689C
:1010D000124B1B7819464FF47A73B3FBF1F3B2FB52
:1010E000F3F3184600F067F90346002B01D0012303
:1010F0000EE07B680F2B0AD8002279684FF0FF3092
:1011000000F02FF9064A7B681360002300E00123FA
:1011100018460837BD4680BD0000002008000020AA
:101120000400002080B400AF064B1B781A46064B23
:101130001B681344044A136000BFBD465DF8047B7E
:10114000704700BF08000020E400002080B400AF1A
:10115000034B1B681846BD465DF8047B704700BF13
:10116000E400002080B584B000AF7860FFF7EEFFA8
:10117000B8607B68FB60FB68B3F1FF3F05D00A4BAA
:101180001B781A46FB681344FB6000BFFFF7DEFFC5
:101190000246BB68D31AFA689A42F7D800BF00BF6C
:1011A0001037BD4680BD00BF0800002080B485B068
:1011B00000AF78607B6803F00703FB600C4BDB68D3
:1011C000BB60BA684FF6FF031340BB60FB681A02AE
:1011D000BB68134343F0BF6343F40033BB60044A6E
:1011E000BB68D36000BF1437BD465DF8047B704711
:1011F00000ED00E080B400AF044BDB681B0A03F095
:1012000007031846BD465DF8047B704700ED00E01B
:1012100080B483B000AF0346FB7197F90730002B11
:101220000BDBFB7903F01F02074997F907305B09D5
:10123000012000FA02F241F8232000BF0C37BD461E
:101240005DF8047B704700BF00E100E080B483B02C
:1012500000AF03463960FB7197F90730002B0ADBBA
:101260003B68DAB20C4997F907301201D2B20B444D
:1012700083F800230AE03B68DAB20849FB7903F0FF
:101280000F03043B1201D2B20B441A7600BF0C3795
:10129000BD465DF8047B704700E100E000ED00E032
:1012A00080B489B000AFF860B9607A60FB6803F081
:1012B0000703FB61FB69C3F10703042B28BF042369
:1012C000BB61FB690433062B02D9FB69033B00E0D9
:1012D00000237B614FF0FF32BB6902FA03F3DA436C
:1012E000BB681A407B699A404FF0FF317B6901FA75
:1012F00003F3D9437B680B40134318462437BD469C
:101300005DF8047B7047000080B582B000AF786064
:101310007B68013BB3F1807F01D301230FE00A4AD0
:101320007B68013B53600F214FF0FF30FFF78EFFCA
:10133000054B00229A60044B07221A6000231846CE
:101340000837BD4680BD00BF10E000E080B582B028
:1013500000AF78607868FFF729FF00BF0837BD4607
:1013600080BD80B586B000AF0346B9607A60FB737C
:1013700000237B61FFF73EFF78617A68B96878697E
:10138000FFF78EFF024697F90F3011461846FFF718
:101390005DFF00BF1837BD4680BD80B582B000AF8D
:1013A0000346FB7197F907301846FFF731FF00BF7E
:1013B0000837BD4680BD80B582B000AF78607868E0
:1013C000FFF7A2FF034618460837BD4680BD000060
:1013D00080B586B000AFF860B960C7E90023234B41
:1013E0001B7E012B01D102233BE0204B01221A7608
:1013F0004CF2503000F070F80346FB75FB7D002B7B
:101400002BD1FB68002B05D13B781946B86800F05A
:101410001BF916E0FB68012B05D13B881946B8681B
:1014200000F0EEF80DE0FB68022B05D13B68194691
:10143000B86800F0C3F804E0D7E90023B86800F00A
:101440008BF84CF2503000F047F80346FB75084B20
:101450001B69074A23F001031361044B00221A762B
:10146000FB7D18461837BD4680BD00BF0C0000202C
:10147000003C024080B483B000AF0023FB710B4BF3
:101480001B69002B0BDA094B094A5A60074B094AC2
:101490005A60064B1B69002B01DA0123FB71FB79B3
:1014A00018460C37BD465DF8047B7047003C02408F
:1014B00023016745AB89EFCD80B400AF054B1B69B5
:1014C000044A43F00043136100231846BD465DF80B
:1014D000047B7047003C024080B584B000AF786068
:1014E0000023FB601A4B0022DA61FFF72FFEF86041
:1014F00010E07B68B3F1FF3F0CD07B68002B07D076
:10150000FFF724FE0246FB68D31A7A689A4201D29A
:10151000032319E00F4BDB6803F48033002BE8D181
:101520000C4BDB6803F00103002B02D0094B0122B6
:10153000DA60084BDB6803F4F973002B03D000F08A
:10154000A5F8012300E0002318461037BD4680BDF2
:101550000C000020003C024080B485B000AFF86071
:10156000C7E90023144B1B69134A23F4407313612A
:10157000114B1B69104A43F4407313610E4B1B69F6
:101580000D4A43F001031361FB683A681A60BFF328
:101590006F8F00BFD7E900014FF000024FF000034A
:1015A0000A000023F968043113460B6000BF1437AA
:1015B000BD465DF8047B7047003C024080B483B0B8
:1015C00000AF786039600D4B1B690C4A23F44073FF
:1015D00013610A4B1B69094A43F400731361074BFB
:1015E0001B69064A43F0010313617B683A681A607D
:1015F00000BF0C37BD465DF8047B7047003C0240DD
:1016000080B483B000AF78600B467B800D4B1B69C4
:101610000C4A23F4407313610A4B1B69094A43F4D3
:1016200080731361074B1B69064A43F00103136182
:101630007B687A881A8000BF0C37BD465DF8047B52
:10164000704700BF003C024080B483B000AF7860B8
:101650000B46FB700C4B1B690B4A23F44073136160
:10166000094B094A1B691361074B1B69064A43F082
:10167000010313617B68FA781A7000BF0C37BD460E
:101680005DF8047B704700BF003C024080B400AFAF
:101690002F4BDB6803F01003002B08D02D4BDB69C8
:1016A00043F010032B4AD361294B1022DA60284BF8
:1016B000DB6803F02003002B08D0264BDB6943F0E6
:1016C0000803244AD361224B2022DA60204BDB68D6
:1016D00003F04003002B08D01E4BDB6943F00403EA
:1016E0001C4AD3611A4B4022DA60194BDB6803F0C5
:1016F0008003002B08D0174BDB6943F00203154A27
:10170000D361134B8022DA60114BDB6803F48073E2
:10171000002B09D00F4BDB6943F001030D4AD36165
:101720000B4B4FF48072DA60094BDB6803F0020365
:10173000002B08D0074BDB6943F02003054AD36137
:10174000034B0222DA6000BFBD465DF8047B7047A0
:10175000003C02400C00002080B584B000AF7860EF
:1017600039600023BB60314B1B7E012B01D102236A
:1017700058E02E4B01221A764CF25030FFF7ACFEA7
:101780000346FB73FB7B002B48D13B684FF0FF32D5
:101790001A607B681B68012B15D17B681B69DAB264
:1017A0007B685B681946104600F044F84CF25030F4
:1017B000FFF792FE0346FB731D4B1B691C4A23F087
:1017C0000403136128E07B689B68BB601CE07B68B6
:1017D0001B69DBB21946B86800F050F84CF2503083
:1017E000FFF77AFE0346FB73114B1B69104A23F087
:1017F000FA031361FB7B002B03D03B68BA681A60C5
:101800000AE0BB680133BB607B68DA687B689B6871
:101810001344BA689A42DAD300F078F8034B0022F6
:101820001A76FB7B18461037BD4680BD0C000020A1
:10183000003C024080B483B000AF03463960FB71C6
:101840000D4B1B690C4A23F4407313610A4B1B694F
:10185000094A43F004031361074B1A69FB791B0221
:101860001343054A43F48033136100BF0C37BD4670
:101870005DF8047B704700BF003C024080B485B037
:1018800000AF78600B46FB700023FB60FB78002BF9
:1018900002D10023FB6010E0FB78012B03D14FF451
:1018A0008073FB6009E0FB78022B03D14FF40073D7
:1018B000FB6002E04FF44073FB60134B1B69124A5C
:1018C00023F440731361104B1A690F49FB681343EB
:1018D0000B610D4B1B690C4A23F0F80313610A4B93
:1018E0001A697B68DB001343074A43F00203136164
:1018F000054B1B69044A43F48033136100BF14375E
:10190000BD465DF8047B7047003C024080B400AFE8
:10191000204B1B6803F40073002B17D01D4B1B6872
:101920001C4A23F4007313601A4B1B68194A43F4D2
:1019300000631360174B1B68164A23F4006313609F
:10194000144B1B68134A43F400731360114B1B685C
:1019500003F48063002B17D00E4B1B680D4A23F451
:10196000806313600B4B1B680A4A43F48053136077
:10197000084B1B68074A23F480531360054B1B6810
:10198000044A43F48063136000BFBD465DF8047BE6
:10199000704700BF003C024080B489B000AF78605F
:1019A000396000237B6100233B610023BB6100237E
:1019B000FB6159E10122FB6902FA03F37B613B6899
:1019C0001B687A6913403B613A697B699A4240F02F
:1019D00048813B685B6803F00303012B05D03B683B
:1019E0005B6803F00303022B30D17B689B68BB610B
:1019F000FB695B00032202FA03F3DB43BA6913407D
:101A0000BB613B68DA68FB695B0002FA03F3BA6901
:101A10001343BB617B68BA699A607B685B68BB6192
:101A20000122FB6902FA03F3DB43BA691340BB618D
:101A30003B685B681B0903F00102FB6902FA03F3D0
:101A4000BA691343BB617B68BA695A603B685B68DB
:101A500003F00303032B17D07B68DB68BB61FB69D2
:101A60005B00032202FA03F3DB43BA691340BB6154
:101A70003B689A68FB695B0002FA03F3BA69134397
:101A8000BB617B68BA69DA603B685B6803F003039B
:101A9000022B23D1FB69DA087B68083253F8223025
:101AA000BB61FB6903F007039B000F2202FA03F3FB
:101AB000DB43BA691340BB613B681A69FB6903F0F9
:101AC00007039B0002FA03F3BA691343BB61FB6986
:101AD000DA087B680832B96943F822107B681B6812
:101AE000BB61FB695B00032202FA03F3DB43BA69C3
:101AF0001340BB613B685B6803F00302FB695B005A
:101B000002FA03F3BA691343BB617B68BA691A60CE
:101B10003B685B6803F44033002B00F0A280002395
:101B2000FB60574B5B6C564A43F480435364544B01
:101B30005B6C03F48043FB60FB68524AFB699B08C3
:101B4000023352F82330BB61FB6903F003039B00AF
:101B50000F2202FA03F3DB43BA691340BB617B68CF
:101B6000494A934219D07B68484A934213D07B6814
:101B7000474A93420DD07B68464A934207D07B6820
:101B8000454A934201D1042308E0072306E00323DA
:101B900004E0022302E0012300E00023FA6902F0DE
:101BA000030292009340BA691343BB613549FB6954
:101BB0009B080233BA6941F82320384B9B68BB610C
:101BC0003B69DB43BA691340BB613B685B6803F464
:101BD0008013002B03D0BA693B691343BB612F4AC2
:101BE000BB6993602D4BDB68BB613B69DB43BA6922
:101BF0001340BB613B685B6803F40013002B03D008
:101C0000BA693B691343BB61244ABB69D360234B68
:101C10005B68BB613B69DB43BA691340BB613B68EE
:101C20005B6803F40033002B03D0BA693B691343AC
:101C3000BB611A4ABB695360184B1B68BB613B69A7
:101C4000DB43BA691340BB613B685B6803F48033D4
:101C5000002B03D0BA693B691343BB610F4ABB69D0
:101C60001360FB690133FB61FB690F2B7FF6A2AEAA
:101C700000BF00BF2437BD465DF8047B704700BF3E
:101C800000380240003801400000024000040240D9
:101C900000080240000C024000100240003C0140DD
:101CA00080B485B000AF78600B467B807B681A6992
:101CB0007B881340002B02D00123FB7301E000233B
:101CC000FB73FB7B18461437BD465DF8047B7047F9
:101CD00080B483B000AF78600B467B8013467B7086
:101CE0007B78002B03D07A887B689A6103E07B883D
:101CF0001A047B689A6100BF0C37BD465DF8047B0F
:101D0000704780B485B000AF78600B467B807B68FD
:101D10005B69FB607A88FB6813401A04FB68D9434F
:101D20007B880B401A437B689A6100BF1437BD461D
:101D30005DF8047B7047000080B582B000AF0346B9
:101D4000FB80084B5A69FB881340002B06D0054ADC
:101D5000FB885361FB88184600F006F800BF08377F
:101D6000BD4680BD003C014080B483B000AF034657
:101D7000FB8000BF0C37BD465DF8047B7047000058
:101D800080B586B000AF78607B68002B01D101235D
:101D900067E27B681B6803F00103002B75D0884B5A
:101DA0009B6803F00C03042B0CD0854B9B6803F05D
:101DB0000C03082B12D1824B5B6803F48003B3F54C
:101DC000800F0BD17E4B1B6803F40033002B5BD0DC
:101DD0007B685B68002B57D1012342E27B685B681C
:101DE000B3F5803F06D1764B1B68754A43F48033C8
:101DF00013601DE07B685B68B3F5A02F0CD1704BBE
:101E00001B686F4A43F4802313606D4B1B686C4A58
:101E100043F4803313600BE0694B1B68684A23F47A
:101E200080331360664B1B68654A23F4802313607C
:101E30007B685B68002B13D0FFF788F9386108E0F6
:101E4000FFF784F902463B69D31A642B01D90323B7
:101E500007E25B4B1B6803F40033002BF0D014E067
:101E6000FFF774F9386108E0FFF770F902463B6943
:101E7000D31A642B01D90323F3E1514B1B6803F4FC
:101E80000033002BF0D100E000BF7B681B6803F03B
:101E90000203002B63D04A4B9B6803F00C03002B1A
:101EA0000BD0474B9B6803F00C03082B1CD1444B11
:101EB0005B6803F48003002B16D1414B1B6803F0D1
:101EC0000203002B05D07B68DB68012B01D00123C6
:101ED000C7E13B4B1B6823F0F8027B681B69DB0002
:101EE000374913430B603AE07B68DB68002B20D056
:101EF000344B01221A60FFF729F9386108E0FFF737
:101F000025F902463B69D31A022B01D90323A8E124
:101F10002B4B1B6803F00203002BF0D0284B1B68EF
:101F200023F0F8027B681B69DB00254913430B6033
:101F300015E0244B00221A60FFF708F9386108E029
:101F4000FFF704F902463B69D31A022B01D9032398
:101F500087E11B4B1B6803F00203002BF0D17B6869
:101F60001B6803F00803002B36D07B685B69002BED
:101F700016D0154B01221A60FFF7E8F8386108E027
:101F8000FFF7E4F802463B69D31A022B01D9032379
:101F900067E10B4B5B6F03F00203002BF0D01BE0FB
:101FA000094B00221A60FFF7D1F838610EE0FFF705
:101FB000CDF802463B69D31A022B07D9032350E11F
:101FC0000038024000004742800E4742884B5B6F5A
:101FD00003F00203002BEAD17B681B6803F00403C3
:101FE000002B00F097800023FB75814B1B6C03F0E6
:101FF0008053002B0FD10023BB607D4B1B6C7C4AB0
:1020000043F0805313647A4B1B6C03F08053BB6026
:10201000BB680123FB75774B1B6803F48073002BAF
:1020200018D1744B1B68734A43F480731360FFF735
:102030008DF8386108E0FFF789F802463B69D31A4A
:10204000022B01D903230CE16A4B1B6803F4807354
:10205000002BF0D07B689B68012B06D1644B1B6F73
:10206000634A43F0010313671CE07B689B68052B00
:102070000CD15F4B1B6F5E4A43F0040313675C4B4C
:102080001B6F5B4A43F0010313670BE0584B1B6F58
:10209000574A23F001031367554B1B6F544A23F033
:1020A000040313677B689B68002B15D0FFF74EF87D
:1020B00038610AE0FFF74AF802463B69D31A41F259
:1020C0008832934201D90323CBE0494B1B6F03F0C5
:1020D0000203002BEED014E0FFF738F838610AE075
:1020E000FFF734F802463B69D31A41F28832934233
:1020F00001D90323B5E03E4B1B6F03F00203002B15
:10210000EED1FB7D012B05D1394B1B6C384A23F0F6
:10211000805313647B689B69002B00F0A180344BD3
:102120009B6803F00C03082B5CD07B689B69022B37
:1021300041D1314B00221A60FFF708F8386108E0FE
:10214000FFF704F802463B69D31A022B01D9032397
:1021500087E0274B1B6803F00073002BF0D17B68EE
:10216000DA697B681B6A1A437B685B6A9B011A43C6
:102170007B689B6A5B08013B1B041A437B68DB6A34
:102180001B061B4913434B601B4B01221A60FEF7D1
:10219000DDFF386108E0FEF7D9FF02463B69D31A3C
:1021A000022B01D903235CE0114B1B6803F0007381
:1021B000002BF0D054E0104B00221A60FEF7C6FF4F
:1021C000386108E0FEF7C2FF02463B69D31A022BD2
:1021D00001D9032345E0064B1B6803F00073002B75
:1021E000F0D13DE07B689B69012B07D1012338E0EA
:1021F0000038024000700040600047421B4B5B68A3
:10220000FB607B689B69012B28D0FB6803F480028C
:102210007B68DB699A4221D1FB6803F03F027B684F
:102220001B6A9A421AD1FA6847F6C07313407A685B
:10223000526A9201934211D1FB6803F440327B68E9
:102240009B6A5B08013B1B049A4207D1FB6803F0C1
:1022500070627B68DB6A1B069A4201D0012300E0B2
:10226000002318461837BD4680BD00BF0038024025
:1022700080B584B000AF786039607B68002B01D1F5
:102280000123CCE0684B1B6803F007033A689A42CD
:102290000CD9654B3A68D2B21A70634B1B6803F0D5
:1022A00007033A689A4201D00123B8E07B681B68B3
:1022B00003F00203002B20D07B681B6803F00403AB
:1022C000002B05D0594B9B68584A43F4E053936068
:1022D0007B681B6803F00803002B05D0534B9B68F9
:1022E000524A43F460439360504B9B6823F0F002E2
:1022F0007B689B684D4913438B607B681B6803F0C8
:102300000103002B44D07B685B68012B07D1474B4E
:102310001B6803F40033002B19D101237FE07B6895
:102320005B68022B03D07B685B68032B07D13F4BB4
:102330001B6803F00073002B09D101236FE03B4BB6
:102340001B6803F00203002B01D1012367E0374B28
:102350009B6823F003027B685B68344913438B60FE
:10236000FEF7F4FEF8600AE0FEF7F0FE0246FB68B6
:10237000D31A41F28832934201D903234FE02B4B09
:102380009B6803F00C027B685B689B009A42EBD170
:10239000254B1B6803F007033A689A420CD2224B84
:1023A0003A68D2B21A70204B1B6803F007033A68F0
:1023B0009A4201D0012332E07B681B6803F00403DA
:1023C000002B08D0194B9B6823F4E0527B68DB6834
:1023D000164913438B607B681B6803F00803002BCE
:1023E00009D0124B9B6823F460427B681B69DB00B9
:1023F0000E4913438B6000F021F802460B4B9B689B
:102400001B0903F00F030A49CB5C22FA03F3094AC4
:102410001360094B1B681846FEF754FE002318464C
:102420001037BD4680BD00BF003C0240003802406E
:10243000D83A000800000020040000202DE9B04F29
:1024400090B000AF00237B630023FB6300233B635A
:102450000023BB63594B9B6803F00C03082B0DD082
:10246000082B00F2A180002B02D0042B03D09BE0AC
:10247000534BBB639BE0534BBB6398E04F4B5B6894
:1024800003F03F037B634D4B5B6803F48003002B39
:1024900028D04A4B5B689B0900223B627A623B6A08
:1024A000C3F308000021474B03FB01F2002300FBAC
:1024B00003F31344434AA0FB0212FA620A46BA62CB
:1024C000FA6A1344FB627B6B0022BB61FA61D7E9B5
:1024D0000623D7E90A01FDF7DBFE02460B46134649
:1024E000FB6353E0354B5B689B0900223B617A61DB
:1024F0003B69C3F3080A4FF0000B52465B464FF0AE
:1025000000004FF00001590141EAD261500102463A
:102510000B46B2EB0A0863EB0B094FF000024FF0D9
:1025200000034FEA891343EA98634FEA8812B2EB3B
:10253000080463EB09054FF000024FF00003EB00C5
:1025400043EA5473E20014461D4614EB0A033B6051
:1025500045EB0B037B604FF000024FF00003D7E91F
:10256000004529468B02214643EA915321468A02BF
:10257000104619467B6B0022BB60FA60D7E9022344
:10258000FDF786FE02460B461346FB630B4B5B686A
:102590001B0C03F0030301335B003B63FA6B3B6BE3
:1025A000B2FBF3F3BB6302E0054BBB6300BFBB6B45
:1025B00018464037BD46BDE8B08F00BF0038024026
:1025C0000024F40040787D0180B400AF034B1B6809
:1025D0001846BD465DF8047B704700BF0000002030
:1025E00080B500AFFFF7F0FF0246054B9B689B0AE2
:1025F00003F007030349CB5C22FA03F3184680BDBE
:1026000000380240E83A000880B500AFFFF7DCFF71
:102610000246054B9B685B0B03F007030349CB5C49
:1026200022FA03F3184680BD00380240E83A000859
:1026300080B582B000AFFEF789FD78605D4B1B6806
:102640005C4A43F00103136008E0FEF77FFD024699
:102650007B68D31A022B01D90323A7E0554B1B68D3
:1026600003F00203002BF0D0524B1B68514A43F099
:1026700080031360FEF76AFD78604E4B00229A607B
:102680000AE0FEF763FD02467B68D31A41F2883206
:10269000934201D9032389E0464B9B6803F00C0366
:1026A000002BEED1FEF752FD7860424B1B68414A89
:1026B00023F45023136008E0FEF748FD02467B68D0
:1026C000D31A642B01D9032370E03A4B1B6803F43F
:1026D0000033002BF0D1FEF739FD7860354B1B68D5
:1026E000344A23F08073136008E0FEF72FFD0246A2
:1026F0007B68D31A022B01D9032357E02D4B1B68AB
:1027000003F00073002BF0D1FEF720FD7860294B19
:102710001B68284A23F08063136008E0FEF716FD6B
:1027200002467B68D31A022B01D903233EE0214BDA
:102730001B6803F00063002BF0D11E4B1E4A5A6049
:102740001C4B1E4AC3F884201A4BDB68194A23F439
:10275000F853D360174BDB68164A23F40053D36059
:10276000144BDB68134A43F41F03D360114BDB683F
:10277000104A43F40013D3600E4B5B6F0D4A23F0F5
:10278000010353670B4B5B6F0A4A43F08073536737
:102790000B4B0C4A1A600C4B1B681846FEF792FC58
:1027A0000346002B01D0012300E000231846083720
:1027B000BD4680BD003802401030000400300020CB
:1027C000000000200024F4000400002080B582B046
:1027D00000AF78607B68002B01D1012342E07B6869
:1027E00093F84130DBB2002B06D17B68002283F8DE
:1027F00040207868FEF79CFB7B68242283F8412008
:102800007B681B68DA687B681B6822F40052DA6018
:10281000786800F009FA7B681B681A697B681B6896
:1028200022F490421A617B681B685A697B681B68B6
:1028300022F02A025A617B681B68DA687B681B6891
:1028400042F40052DA607B6800225A647B682022DE
:1028500083F841207B68202283F842207B68002295
:102860005A63002318460837BD4680BD80B58AB03C
:1028700002AFF860B9603B601346FB8000237B61C8
:10288000FB6893F84130DBB2202B75D1BB68002B7D
:1028900002D0FB88002B01D101236EE0FB680022EF
:1028A0005A64FB68212283F84120FEF74FFC7861CF
:1028B000FB68FA889A84FB68FA88DA84FB689B686C
:1028C000B3F5805F08D1FB681B69002B04D100239E
:1028D000FB61BB68BB6103E0BB68FB610023BB61BC
:1028E0002EE03B6800937B6900228021F86800F0AD
:1028F000DFF80346002B05D0FB68202283F8412037
:1029000003233AE0FB69002B0BD1BB691B881A46F5
:10291000FB681B68C2F308025A60BB690233BB61E3
:1029200007E0FB691A78FB681B685A60FB69013392
:10293000FB61FB68DB8C9BB2013B9AB2FB68DA84DB
:10294000FB68DB8C9BB2002BCBD13B6800937B698F
:1029500000224021F86800F0ABF80346002B05D0B8
:10296000FB68202283F84120032306E0FB68202235
:1029700083F84120002300E0022318462037BD469B
:1029800080BD80B58AB002AFF860B9603B60134685
:10299000FB8000237B61FB6893F84230DBB2202B85
:1029A00040F08180BB68002B02D0FB88002B01D156
:1029B000012379E0FB6800225A64FB68222283F835
:1029C0004220FB6800221A63FEF7C0FB7861FB68B7
:1029D000FA889A85FB68FA88DA85FB689B68B3F504
:1029E000805F08D1FB681B69002B04D10023FB61C9
:1029F000BB68BB6103E0BB68FB610023BB6147E0D0
:102A00003B6800937B6900222021F86800F050F8B1
:102A10000346002B05D0FB68202283F842200323C5
:102A200042E0FB69002B0CD1FB681B685B689BB222
:102A3000C3F308039AB2BB691A80BB690233BB6156
:102A40001FE0FB689B68B3F5805F07D0FB689B685D
:102A5000002B0AD1FB681B69002B06D1FB681B68A1
:102A60005B68DAB2FB691A7008E0FB681B685B6898
:102A7000DBB203F07F03DAB2FB691A70FB69013342
:102A8000FB61FB68DB8D9BB2013B9AB2FB68DA8588
:102A9000FB68DB8D9BB2002BB2D1FB68202283F850
:102AA0004220002300E0022318462037BD4680BDA7
:102AB00080B586B000AFF860B9603B601346FB712B
:102AC0003BE03B6AB3F1FF3F37D0FEF73FFB0246E6
:102AD0003B68D31A3A6A9A4202D33B6A002B01D16F
:102AE00003233AE0FB681B68DB6803F00403002B58
:102AF00023D0BB68802B20D0BB68402B1DD0FB6847
:102B00001B681B6803F00803082B16D100237B61A8
:102B1000FB681B681B687B61FB681B685B687B61EB
:102B20007B69F86800F01DF8FB6808225A64FB68AE
:102B3000002283F8402001230FE0FB681B681A681D
:102B4000BB681340BA689A420CBF01230023DBB272
:102B50001A46FB799A42B4D0002318461837BD466E
:102B600080BD80B495B000AF78607B681B680C3383
:102B70007B637B6B53E8003F3B633B6B23F49073B9
:102B8000FB647B681B680C33FA6C3A64FB63F96B7B
:102B90003A6C41E80023BB63BB6B002BE5D17B683B
:102BA0001B6814333B623B6A53E8003FFB61FB69DF
:102BB00023F00103BB647B681B681433BA6CFA62B0
:102BC000BB62B96AFA6A41E800237B627B6A002B28
:102BD000E5D17B681B6B012B19D17B681B680C331B
:102BE000FB60FB6853E8003FBB60BB6823F0100349
:102BF0007B647B681B680C337A6CBA617B61796992
:102C0000BA6941E800233B613B69002BE5D17B6851
:102C1000202283F842207B6800221A6300BF5437C9
:102C2000BD465DF8047B70472DE9B04FC0B000AFE2
:102C3000C7F8F400D7F8F4301B681B6923F4405040
:102C4000D7F8F430D968D7F8F4301A6840EA0103AD
:102C50001361D7F8F4309A68D7F8F4301B691A4337
:102C6000D7F8F4305B691A43D7F8F430DB691343C3
:102C7000C7F8F830D7F8F4301B68DB6823F4164146
:102C800021F00C01D7F8F4301A68D7F8F8300B436C
:102C9000D360D7F8F4301B685B6923F44070D7F831
:102CA000F4309969D7F8F4301A6840EA01035361A7
:102CB000D7F8F4301A688F4B9A4205D0D7F8F43021
:102CC0001A688D4B9A4204D1FFF79EFCC7F8FC00AE
:102CD00003E0FFF785FCC7F8FC00D7F8F430DB69A8
:102CE000B3F5004F40F00C81D7F8FC300022C7F854
:102CF000E830C7F8EC20D7E93A4522462B46911830
:102D0000B9655B41FB65D7E91623214612EB010843
:102D1000294643EB01094FF000024FF000034FEA50
:102D2000C90343EA58734FEAC802904699462346BE
:102D300018EB0303C7F8E0302B4649EB0303C7F851
:102D4000E430D7F8F4305B680022C7F8D830C7F811
:102D5000DC20D7E936120B46DB183B65134642EB05
:102D600003037B65D7E91423D7E93801FDF790FA0F
:102D700002460B46614BA3FB02235B091C01D7F8FB
:102D8000FC300022C7F8D030C7F8D420D7E9348906
:102D900042464B469118B9645B41FB64D7E9122364
:102DA000414612EB010A494643EB010B4FF000028A
:102DB0004FF000034FEACB0343EA5A734FEACA02CB
:102DC00092469B4643461AEB0303C7F8C8304B466E
:102DD0004BEB0303C7F8CC30D7F8F4305B68002224
:102DE000C7F8C030C7F8C420D7E930120B46DB184B
:102DF0003B64134642EB03037B64D7E91023D7E916
:102E00003201FDF745FA02460B4611463B4BA3FB48
:102E100001235B09642202FB03F3CB1ADB0003F1FD
:102E20003202364BA3FB02235B095B0003F4F87309
:102E30001C44D7F8FC300022C7F8B830C7F8BC20D3
:102E4000D7E92E8942464B469118B9635B41FB6333
:102E5000D7E90E2341465118396349464B417B63FC
:102E60004FF000024FF00003D7E90CAB5946CB00FE
:102E7000514643EA51735146CA001046194603466B
:102E800042469B18C7F8B0304B460A4642EB030354
:102E9000C7F8B430D7F8F4305B680022C7F8A83020
:102EA000C7F8AC20D7E92A120B46DB18BB621346E1
:102EB00042EB0303FB62D7E90A23D7E92C01FDF7B4
:102EC000E7F902460B460D4BA3FB02135B09642195
:102ED00001FB03F3D31ADB003233084AA2FB0323BE
:102EE0005B0903F00702D7F8F4301B6822449A60AC
:102EF00006E100BF00100140001401401F85EB51A6
:102F0000D7F8FC300022C7F8A030C7F8A420D7E9D2
:102F1000288942464B46911839625B417B62D7E96A
:102F2000082341465418494643EB01054FF000027F
:102F30004FF00003EB0043EA5473E20014461D46D1
:102F40004346E318C7F898304B4645EB0303C7F8F0
:102F50009C30D7F8F4305B680022C7F89030C7F88F
:102F600094204FF000024FF00003D7E92445294692
:102F70008B00214643EA917321468A00D7E9260156
:102F8000FDF786F902460B46604BA3FB02235B0963
:102F90001C01D7F8FC300022C7F88830C7F88C2015
:102FA000D7E9228942464B469118B9615B41FB61E2
:102FB000D7E9062341465118396149464B417B61A7
:102FC0004FF000024FF00003D7E904AB5946CB00A5
:102FD000514643EA51735146CA001046194603460A
:102FE00042469B18C7F880304B460A4642EB030323
:102FF000C7F88430D7F8F4305B680022BB67FA6703
:103000004FF000024FF00003D7E91E8949468B00BC
:10301000414643EA917341468A00D7E92001FDF712
:1030200037F902460B461146384BA3FB01235B09D7
:10303000642202FB03F3CB1A1B013233334AA2FB97
:1030400003235B0903F0F0031C44D7F8FC30002293
:103050003B677A67D7E91C8942464B469118B960AD
:103060005B41FB60D7E9022341465118396049466C
:103070004B417B604FF000024FF00003D7E900ABFB
:103080005946CB00514643EA51735146CA00104697
:103090001946034642469B18BB664B460A4642EB1E
:1030A0000303FB66D7F8F4305B6800223B667A6660
:1030B0004FF000024FF00003D7E9188949468B0012
:1030C000414643EA917341468A00D7E91A01FDF768
:1030D000DFF802460B460D4BA3FB02135B0964218C
:1030E00001FB03F3D31A1B013233084AA2FB03236B
:1030F0005B0903F00F02D7F8F4301B6822449A6092
:1031000000BF07F58077BD46BDE8B08F1F85EB5146
:103110000EB410B59DB01FAB029006906FF0004149
:103120000A48079104910A4953F8042B0591002499
:1031300002A9006801931B9400F094F9029B1C7093
:103140001DB0BDE8104003B0704700BF2C00002048
:103150000802FFFF02440346934200D1704703F880
:10316000011BF9E7014B1868704700BF2C000020D5
:1031700070B50D4D0D4C641BA4100026A64209D15C
:103180000B4D0C4C00F064FC641BA4100026A642FE
:1031900005D170BD55F8043B98470136EEE755F868
:1031A000043B98470136F2E72C3B00082C3B000813
:1031B0002C3B0008303B00087047704738B5054687
:1031C000002941D051F8043C0C1F002BB8BFE41873
:1031D00000F0E0F81D4A136833B9636014602846B4
:1031E000BDE8384000F0DCB8A34208D920682118B7
:1031F0008B4201BF19685B6809182160EDE71A4628
:103200005B680BB1A342FAD911685018A0420BD1E8
:1032100020680144501883421160E0D118685B684F
:10322000536008441060DAE702D90C232B60D6E71C
:10323000206821188B4204BF19685B68636004BF73
:10324000091821605460CAE738BD00BF2C02002075
:1032500070B50F4E0C463168054611B900F0A4FB5D
:1032600030602146284600F09FFB431C03D14FF0FD
:10327000FF34204670BDC41C24F00304A042F8D0E3
:10328000211A284600F090FB0130F2D1EFE700BF91
:10329000280200202DE9F843CD1C25F00305083550
:1032A0000C2D38BF0C25002D064601DBA94204D9A0
:1032B0000C2333600020BDE8F883DFF8D48000F0F1
:1032C00069F8D8F800301C4644BB29463046FFF761
:1032D000BFFF431C044658D1D8F800402746002FB2
:1032E00043D1002C4BD023683946304604EB030908
:1032F00000F05AFB814542D121686D1A29463046BB
:10330000FFF7A6FF01303AD023682B442360D8F89A
:1033100000305A6862BBC8F800700FE02268521B88
:1033200020D40B2A17D96119A342256018BF596010
:10333000636808BFC8F8001062514B60304600F067
:103340002FF804F10B00231D20F00700C21A1CBF48
:103350001B1AA350AFE76268A3420CBFC8F8002055
:103360005A60EBE723466468AEE73C467F68B6E701
:103370001A465B68A342FBD100235360DEE70C23AF
:103380003360304600F00CF894E70560D6E700BFE4
:103390002C0200200148FFF70FBF00BF24020020CD
:1033A0000148FFF70ABF00BF240200202DE9F047C3
:1033B0008E681F46BE420B6882460C4690462DD84A
:1033C000B1F90C2012F4906F26D06569096905EBFC
:1033D0004505A3EB010905EBD5757B1C4B446D102E
:1033E0009D4238BF1D46530527D52946FFF752FF9A
:1033F000064660B321694A4600F0E6FAA38923F441
:10340000906343F08003A381266165614E44A5EB80
:1034100009052660A5603E46BE4200D93E462068AA
:103420003246414600F0A6FAA3689B1BA3602368BE
:10343000334423600020BDE8F0872A4600F0D2FA2A
:1034400006460028E0D121695046FFF7B7FE0C235D
:10345000CAF80030A38943F04003A3814FF0FF3046
:10346000E9E700002DE9F04F98468B891B069DB0D7
:1034700007460D46144610D50B6973B94021FFF776
:1034800009FF2860286130B90C233B604FF0FF3002
:103490001DB0BDE8F08F40236B610023099320230A
:1034A0008DF82930CDF80C803023DFF89C818DF821
:1034B0002A304FF0010923469A4613F8012B0AB12E
:1034C000252AF9D1BAEB040B0BD05B4622462946DC
:1034D0003846FFF76BFF013000F0A780099A5A4485
:1034E00009929AF80030002B00F09F8000234FF0E3
:1034F000FF32CDE905230AF1010A049307938DF801
:1035000053301A935446052214F8011B4E48FCF719
:103510006FFE049AD8B9D00644BF20238DF85330EB
:10352000110744BF2B238DF853309AF800302A2B13
:1035300015D0079A544600204FF00A0C214611F886
:10354000013B303B092B4BD9B0B1079214E0A0EB03
:10355000080309FA03F313430493A246D2E7039B3B
:10356000191D1B680391002BBBBF5B4242F0020296
:1035700007930793B8BF049223782E2B0AD1637860
:103580002A2B32D1039B1A1D1B68039243EAE37373
:1035900002340593DFF8C0A0217803225046FCF7DF
:1035A00027FE38B1049BA0EB0A004022824013435F
:1035B0000134049314F8011B24488DF828100622C6
:1035C000FCF716FE002836D0214B1BBB039B0733AC
:1035D00023F0070308330393099B334409936AE7F5
:1035E0000CFB02320C460120A8E7002301340593AE
:1035F00019464FF00A0C204610F8012B303A092AE0
:1036000003D9002BC6D00591C4E70CFB0121044669
:103610000123F0E703AB00932A460E4B04A938467A
:10362000AFF30080421C0646D6D1AB895B063FF55E
:103630002DAF09982CE703AB00932A46054B04A94C
:10364000384600F079F8EDE7F03A0008FA3A000859
:1036500000000000AD330008F63A00082DE9F047FD
:10366000164698468A680B69DDF820909342B8BFE9
:103670001346336091F8432007460C460AB10133E4
:1036800033602368990642BF33680233336025688C
:1036900015F0060506D104F1190AE36832689B1A91
:1036A000AB4226DC94F843302268003B18BF01236C
:1036B00092062BD404F1430241463846C8470130F4
:1036C0001ED02368226903F00603042B02BFE568BD
:1036D0003368ED1AA3680CBF25EAE575002593420F
:1036E000C4BF9B1AED1800261A34B5421AD1002027
:1036F00008E00123524641463846C847013003D10D
:103700004FF0FF30BDE8F0870135C6E7E1185A1CDD
:10371000302081F84300224494F8451082F8431089
:103720000233C7E70123224641463846C8470130E5
:10373000E6D00136D9E700002DE9FF470F7E0C9E49
:10374000782F914680460C469A4601F1430207D8ED
:10375000622F0AD8002F00F0D180582F00F0B880D7
:1037600004F1420684F842703AE0A7F16303152B96
:10377000F6D801A151F823F0D1370008E537000849
:1037800061370008613700086137000861370008B9
:10379000E537000861370008613700086137000825
:1037A00061370008E33800080F3800089D3800082A
:1037B00061370008613700080539000861370008E3
:1037C0000F3800086137000861370008A538000885
:1037D00033681A1D1B68326004F1420684F84230D7
:1037E00001239CE033682068191D3160060601D56D
:1037F0001D6803E04506FBD5B3F90050002D03DA40
:103800002D236D4284F8433058480A2311E0216883
:103810003368080653F8045B02D4490648BFADB2CA
:103820006F2F5248336014BF0A230823002184F805
:1038300043106668A660002E05DB21682E4321F048
:10384000040121604BD01646B5FBF3F103FB115781
:10385000C75D06F8017D2F46BB420D46F4D9082B03
:103860000BD12368DF0708D5236961689942DEBF61
:10387000302306F8013C06F1FF36921B2261CDF899
:1038800000A04B4603AA21464046FFF7E7FE013061
:103890004AD14FF0FF3004B0BDE8F087236843F011
:1038A000200323603248782784F845702368316804
:1038B0001F0651F8045B02D45F0648BFADB2316009
:1038C000D90744BF43F0200323601DB11023ADE7A7
:1038D0002648E9E7236823F020032360F6E716462D
:1038E000BDE7336825686169181D30602E061B68C6
:1038F00001D5196002E06806FBD519800023236119
:103900001646BCE733681A1D32601E6862680021E3
:103910003046FCF76DFC08B1801B60606368236172
:10392000002384F84330AAE72369324649464046DB
:10393000D0470130ADD023689B0713D4E068039BC8
:103940009842B8BF1846A6E701233246494640468A
:10395000D04701309DD00135E36803995B1AAB4233
:10396000F2DCEBE7002504F11906F5E7013B00085E
:10397000123B0008884210B501EB020402D98442D0
:10398000234607D8431EA14208D011F8012B03F8A3
:10399000012FF8E7024401468A4200D110BD13F816
:1039A000014D02F8014DF7E738B5064D00230446F6
:1039B00008462B60FDF74AFA431C02D12B6803B17D
:1039C000236038BD200200200A44914200F1FF33F9
:1039D00000D1704710B511F8014B03F8014F914227
:1039E000F9D110BD2DE9F041074614460D4621B925
:1039F000BDE8F0411146FFF74DBC2AB9FFF7DEFBE9
:103A000025462846BDE8F08100F01AF884420646B3
:103A100002D8B4EB500FF4D821463846FFF73AFCF1
:103A2000804608B94546ECE7B4422246294628BFFD
:103A30003246FFF7C9FF29463846FFF7BFFBF1E7DB
:103A400051F8043C181F002BBCBF0B58C01870471E
:103A5000F8B500BFF8BC08BC9E467047F8B500BF7B
:083A6000F8BC08BC9E4670474B
:103A6800584D4F44454D20726573756C743A202546
:103A7800640D0A0053503A2030782530386C5820AD
:103A88002050433A2030782530386C580D0A000011
:103A98004A756D70696E672E2E2E0D0A00000000A3
:103AA8004A756D70206661696C6564210D0A0000B5
:103AB8005072657061726520696E746F2041707014
:103AC8006C69636174696F6E20210D0A0000000043
:103AD80000000000000000000102030406070809B6
:103AE8000000000001020304232D302B2000686C25
:103AF8004C00656667454647003031323334353609
:103B08003738394142434445460030313233343541
:0C3B18003637383961626364656600006E
:083B2400BCC6FF7F0100000098
:043B2C00C5010008C7
:043B3000A1010008E7
:103B34000024F40010000000010000000000000058
:103B44000000000000000000000000000100000070
:103B54000000000000000000000000003000002011
:103B640000000000E800002050010020B8010020FF
:103B74000000000000000000000000000000000041
:103B84000000000000000000000000000000000031
:103B94000000000000000000000000000000000021
:0C3BA40000000000000000000000000015
:0400000508000FC11F
:00000001FF
